{
  "_format": "hh-sol-artifact-1",
  "contractName": "Aim",
  "sourceName": "contracts/Aim.sol",
  "abi": [
    {
      "inputs": [
        {
          "internalType": "address",
          "name": "creator",
          "type": "address"
        },
        {
          "internalType": "uint128",
          "name": "initialAmount",
          "type": "uint128"
        }
      ],
      "stateMutability": "payable",
      "type": "constructor"
    },
    {
      "anonymous": false,
      "inputs": [
        {
          "indexed": true,
          "internalType": "address",
          "name": "owner",
          "type": "address"
        },
        {
          "indexed": true,
          "internalType": "address",
          "name": "spender",
          "type": "address"
        },
        {
          "indexed": false,
          "internalType": "uint256",
          "name": "value",
          "type": "uint256"
        }
      ],
      "name": "Approval",
      "type": "event"
    },
    {
      "anonymous": false,
      "inputs": [
        {
          "indexed": false,
          "internalType": "address",
          "name": "from",
          "type": "address"
        },
        {
          "indexed": false,
          "internalType": "address",
          "name": "to",
          "type": "address"
        }
      ],
      "name": "FlowCreation",
      "type": "event"
    },
    {
      "anonymous": false,
      "inputs": [
        {
          "indexed": false,
          "internalType": "address",
          "name": "from",
          "type": "address"
        },
        {
          "indexed": false,
          "internalType": "address",
          "name": "to",
          "type": "address"
        }
      ],
      "name": "FlowRemoval",
      "type": "event"
    },
    {
      "anonymous": false,
      "inputs": [
        {
          "indexed": true,
          "internalType": "address",
          "name": "previousOwner",
          "type": "address"
        },
        {
          "indexed": true,
          "internalType": "address",
          "name": "newOwner",
          "type": "address"
        }
      ],
      "name": "OwnershipTransferred",
      "type": "event"
    },
    {
      "anonymous": false,
      "inputs": [
        {
          "indexed": true,
          "internalType": "address",
          "name": "from",
          "type": "address"
        },
        {
          "indexed": true,
          "internalType": "address",
          "name": "to",
          "type": "address"
        },
        {
          "indexed": false,
          "internalType": "uint256",
          "name": "value",
          "type": "uint256"
        }
      ],
      "name": "Transfer",
      "type": "event"
    },
    {
      "inputs": [
        {
          "internalType": "address",
          "name": "owner",
          "type": "address"
        },
        {
          "internalType": "address",
          "name": "spender",
          "type": "address"
        }
      ],
      "name": "allowance",
      "outputs": [
        {
          "internalType": "uint256",
          "name": "",
          "type": "uint256"
        }
      ],
      "stateMutability": "view",
      "type": "function"
    },
    {
      "inputs": [
        {
          "internalType": "address",
          "name": "spender",
          "type": "address"
        },
        {
          "internalType": "uint256",
          "name": "amount",
          "type": "uint256"
        }
      ],
      "name": "approve",
      "outputs": [
        {
          "internalType": "bool",
          "name": "",
          "type": "bool"
        }
      ],
      "stateMutability": "nonpayable",
      "type": "function"
    },
    {
      "inputs": [
        {
          "internalType": "address",
          "name": "account",
          "type": "address"
        }
      ],
      "name": "balanceOf",
      "outputs": [
        {
          "internalType": "uint256",
          "name": "",
          "type": "uint256"
        }
      ],
      "stateMutability": "view",
      "type": "function"
    },
    {
      "inputs": [
        {
          "internalType": "uint128",
          "name": "amount",
          "type": "uint128"
        }
      ],
      "name": "buy",
      "outputs": [],
      "stateMutability": "payable",
      "type": "function"
    },
    {
      "inputs": [
        {
          "internalType": "address",
          "name": "_from",
          "type": "address"
        },
        {
          "components": [
            {
              "internalType": "string",
              "name": "explanation",
              "type": "string"
            },
            {
              "internalType": "uint16",
              "name": "weight",
              "type": "uint16"
            },
            {
              "internalType": "bytes8",
              "name": "d2d",
              "type": "bytes8"
            }
          ],
          "internalType": "struct FlowData",
          "name": "_data",
          "type": "tuple"
        }
      ],
      "name": "createInflow",
      "outputs": [],
      "stateMutability": "nonpayable",
      "type": "function"
    },
    {
      "inputs": [],
      "name": "data",
      "outputs": [
        {
          "internalType": "string",
          "name": "title",
          "type": "string"
        },
        {
          "internalType": "string",
          "name": "description",
          "type": "string"
        },
        {
          "internalType": "string",
          "name": "status",
          "type": "string"
        },
        {
          "internalType": "uint64",
          "name": "effort",
          "type": "uint64"
        },
        {
          "internalType": "bytes3",
          "name": "color",
          "type": "bytes3"
        }
      ],
      "stateMutability": "view",
      "type": "function"
    },
    {
      "inputs": [],
      "name": "decimals",
      "outputs": [
        {
          "internalType": "uint8",
          "name": "",
          "type": "uint8"
        }
      ],
      "stateMutability": "view",
      "type": "function"
    },
    {
      "inputs": [
        {
          "internalType": "address",
          "name": "spender",
          "type": "address"
        },
        {
          "internalType": "uint256",
          "name": "subtractedValue",
          "type": "uint256"
        }
      ],
      "name": "decreaseAllowance",
      "outputs": [
        {
          "internalType": "bool",
          "name": "",
          "type": "bool"
        }
      ],
      "stateMutability": "nonpayable",
      "type": "function"
    },
    {
      "inputs": [],
      "name": "getInflows",
      "outputs": [
        {
          "internalType": "address[]",
          "name": "",
          "type": "address[]"
        }
      ],
      "stateMutability": "view",
      "type": "function"
    },
    {
      "inputs": [],
      "name": "getInvestment",
      "outputs": [
        {
          "internalType": "uint256",
          "name": "",
          "type": "uint256"
        }
      ],
      "stateMutability": "view",
      "type": "function"
    },
    {
      "inputs": [],
      "name": "getPermissions",
      "outputs": [
        {
          "internalType": "uint8",
          "name": "",
          "type": "uint8"
        }
      ],
      "stateMutability": "view",
      "type": "function"
    },
    {
      "inputs": [
        {
          "internalType": "address",
          "name": "spender",
          "type": "address"
        },
        {
          "internalType": "uint256",
          "name": "addedValue",
          "type": "uint256"
        }
      ],
      "name": "increaseAllowance",
      "outputs": [
        {
          "internalType": "bool",
          "name": "",
          "type": "bool"
        }
      ],
      "stateMutability": "nonpayable",
      "type": "function"
    },
    {
      "inputs": [
        {
          "internalType": "address",
          "name": "",
          "type": "address"
        }
      ],
      "name": "inflows",
      "outputs": [
        {
          "internalType": "bool",
          "name": "exists",
          "type": "bool"
        },
        {
          "components": [
            {
              "internalType": "string",
              "name": "explanation",
              "type": "string"
            },
            {
              "internalType": "uint16",
              "name": "weight",
              "type": "uint16"
            },
            {
              "internalType": "bytes8",
              "name": "d2d",
              "type": "bytes8"
            }
          ],
          "internalType": "struct FlowData",
          "name": "data",
          "type": "tuple"
        }
      ],
      "stateMutability": "view",
      "type": "function"
    },
    {
      "inputs": [
        {
          "internalType": "address",
          "name": "creator",
          "type": "address"
        },
        {
          "components": [
            {
              "internalType": "string",
              "name": "title",
              "type": "string"
            },
            {
              "internalType": "string",
              "name": "description",
              "type": "string"
            },
            {
              "internalType": "string",
              "name": "status",
              "type": "string"
            },
            {
              "internalType": "uint64",
              "name": "effort",
              "type": "uint64"
            },
            {
              "internalType": "bytes3",
              "name": "color",
              "type": "bytes3"
            }
          ],
          "internalType": "struct AimData",
          "name": "_data",
          "type": "tuple"
        },
        {
          "internalType": "string",
          "name": "_tokenName",
          "type": "string"
        },
        {
          "internalType": "string",
          "name": "_tokenSymbol",
          "type": "string"
        },
        {
          "internalType": "uint128",
          "name": "initialAmount",
          "type": "uint128"
        }
      ],
      "name": "init",
      "outputs": [],
      "stateMutability": "payable",
      "type": "function"
    },
    {
      "inputs": [],
      "name": "initialized",
      "outputs": [
        {
          "internalType": "bool",
          "name": "",
          "type": "bool"
        }
      ],
      "stateMutability": "view",
      "type": "function"
    },
    {
      "inputs": [],
      "name": "loopWeight",
      "outputs": [
        {
          "internalType": "uint16",
          "name": "",
          "type": "uint16"
        }
      ],
      "stateMutability": "view",
      "type": "function"
    },
    {
      "inputs": [],
      "name": "name",
      "outputs": [
        {
          "internalType": "string",
          "name": "",
          "type": "string"
        }
      ],
      "stateMutability": "view",
      "type": "function"
    },
    {
      "inputs": [],
      "name": "owner",
      "outputs": [
        {
          "internalType": "address",
          "name": "",
          "type": "address"
        }
      ],
      "stateMutability": "view",
      "type": "function"
    },
    {
      "inputs": [
        {
          "internalType": "address",
          "name": "",
          "type": "address"
        }
      ],
      "name": "permissions",
      "outputs": [
        {
          "internalType": "uint8",
          "name": "",
          "type": "uint8"
        }
      ],
      "stateMutability": "view",
      "type": "function"
    },
    {
      "inputs": [
        {
          "internalType": "address",
          "name": "_from",
          "type": "address"
        }
      ],
      "name": "removeInflow",
      "outputs": [],
      "stateMutability": "nonpayable",
      "type": "function"
    },
    {
      "inputs": [],
      "name": "renounceOwnership",
      "outputs": [],
      "stateMutability": "nonpayable",
      "type": "function"
    },
    {
      "inputs": [
        {
          "internalType": "uint128",
          "name": "amount",
          "type": "uint128"
        },
        {
          "internalType": "uint256",
          "name": "minPayout",
          "type": "uint256"
        }
      ],
      "name": "sell",
      "outputs": [],
      "stateMutability": "nonpayable",
      "type": "function"
    },
    {
      "inputs": [],
      "name": "symbol",
      "outputs": [
        {
          "internalType": "string",
          "name": "",
          "type": "string"
        }
      ],
      "stateMutability": "view",
      "type": "function"
    },
    {
      "inputs": [],
      "name": "totalSupply",
      "outputs": [
        {
          "internalType": "uint256",
          "name": "",
          "type": "uint256"
        }
      ],
      "stateMutability": "view",
      "type": "function"
    },
    {
      "inputs": [
        {
          "internalType": "address",
          "name": "to",
          "type": "address"
        },
        {
          "internalType": "uint256",
          "name": "amount",
          "type": "uint256"
        }
      ],
      "name": "transfer",
      "outputs": [
        {
          "internalType": "bool",
          "name": "",
          "type": "bool"
        }
      ],
      "stateMutability": "nonpayable",
      "type": "function"
    },
    {
      "inputs": [
        {
          "internalType": "address",
          "name": "from",
          "type": "address"
        },
        {
          "internalType": "address",
          "name": "to",
          "type": "address"
        },
        {
          "internalType": "uint256",
          "name": "amount",
          "type": "uint256"
        }
      ],
      "name": "transferFrom",
      "outputs": [
        {
          "internalType": "bool",
          "name": "",
          "type": "bool"
        }
      ],
      "stateMutability": "nonpayable",
      "type": "function"
    },
    {
      "inputs": [
        {
          "internalType": "address",
          "name": "newOwner",
          "type": "address"
        }
      ],
      "name": "transferOwnership",
      "outputs": [],
      "stateMutability": "nonpayable",
      "type": "function"
    },
    {
      "inputs": [
        {
          "internalType": "bytes3",
          "name": "_color",
          "type": "bytes3"
        }
      ],
      "name": "updateAimColor",
      "outputs": [],
      "stateMutability": "nonpayable",
      "type": "function"
    },
    {
      "inputs": [
        {
          "internalType": "string",
          "name": "_description",
          "type": "string"
        }
      ],
      "name": "updateAimDescription",
      "outputs": [],
      "stateMutability": "nonpayable",
      "type": "function"
    },
    {
      "inputs": [
        {
          "internalType": "string",
          "name": "_description",
          "type": "string"
        },
        {
          "internalType": "bytes3",
          "name": "_color",
          "type": "bytes3"
        }
      ],
      "name": "updateAimDescriptionColor",
      "outputs": [],
      "stateMutability": "nonpayable",
      "type": "function"
    },
    {
      "inputs": [
        {
          "internalType": "string",
          "name": "_description",
          "type": "string"
        },
        {
          "internalType": "uint64",
          "name": "_effort",
          "type": "uint64"
        }
      ],
      "name": "updateAimDescriptionEffort",
      "outputs": [],
      "stateMutability": "nonpayable",
      "type": "function"
    },
    {
      "inputs": [
        {
          "internalType": "string",
          "name": "_description",
          "type": "string"
        },
        {
          "internalType": "uint64",
          "name": "_effort",
          "type": "uint64"
        },
        {
          "internalType": "bytes3",
          "name": "_color",
          "type": "bytes3"
        }
      ],
      "name": "updateAimDescriptionEffortColor",
      "outputs": [],
      "stateMutability": "nonpayable",
      "type": "function"
    },
    {
      "inputs": [
        {
          "internalType": "string",
          "name": "_description",
          "type": "string"
        },
        {
          "internalType": "string",
          "name": "_status",
          "type": "string"
        }
      ],
      "name": "updateAimDescriptionStatus",
      "outputs": [],
      "stateMutability": "nonpayable",
      "type": "function"
    },
    {
      "inputs": [
        {
          "internalType": "string",
          "name": "_description",
          "type": "string"
        },
        {
          "internalType": "string",
          "name": "_status",
          "type": "string"
        },
        {
          "internalType": "bytes3",
          "name": "_color",
          "type": "bytes3"
        }
      ],
      "name": "updateAimDescriptionStatusColor",
      "outputs": [],
      "stateMutability": "nonpayable",
      "type": "function"
    },
    {
      "inputs": [
        {
          "internalType": "string",
          "name": "_description",
          "type": "string"
        },
        {
          "internalType": "string",
          "name": "_status",
          "type": "string"
        },
        {
          "internalType": "uint64",
          "name": "_effort",
          "type": "uint64"
        }
      ],
      "name": "updateAimDescriptionStatusEffort",
      "outputs": [],
      "stateMutability": "nonpayable",
      "type": "function"
    },
    {
      "inputs": [
        {
          "internalType": "string",
          "name": "_description",
          "type": "string"
        },
        {
          "internalType": "string",
          "name": "_status",
          "type": "string"
        },
        {
          "internalType": "uint64",
          "name": "_effort",
          "type": "uint64"
        },
        {
          "internalType": "bytes3",
          "name": "_color",
          "type": "bytes3"
        }
      ],
      "name": "updateAimDescriptionStatusEffortColor",
      "outputs": [],
      "stateMutability": "nonpayable",
      "type": "function"
    },
    {
      "inputs": [
        {
          "internalType": "uint64",
          "name": "_effort",
          "type": "uint64"
        }
      ],
      "name": "updateAimEffort",
      "outputs": [],
      "stateMutability": "nonpayable",
      "type": "function"
    },
    {
      "inputs": [
        {
          "internalType": "uint64",
          "name": "_effort",
          "type": "uint64"
        },
        {
          "internalType": "bytes3",
          "name": "_color",
          "type": "bytes3"
        }
      ],
      "name": "updateAimEffortColor",
      "outputs": [],
      "stateMutability": "nonpayable",
      "type": "function"
    },
    {
      "inputs": [
        {
          "internalType": "string",
          "name": "_status",
          "type": "string"
        }
      ],
      "name": "updateAimStatus",
      "outputs": [],
      "stateMutability": "nonpayable",
      "type": "function"
    },
    {
      "inputs": [
        {
          "internalType": "string",
          "name": "_status",
          "type": "string"
        },
        {
          "internalType": "bytes3",
          "name": "_color",
          "type": "bytes3"
        }
      ],
      "name": "updateAimStatusColor",
      "outputs": [],
      "stateMutability": "nonpayable",
      "type": "function"
    },
    {
      "inputs": [
        {
          "internalType": "string",
          "name": "_status",
          "type": "string"
        },
        {
          "internalType": "uint64",
          "name": "_effort",
          "type": "uint64"
        }
      ],
      "name": "updateAimStatusEffort",
      "outputs": [],
      "stateMutability": "nonpayable",
      "type": "function"
    },
    {
      "inputs": [
        {
          "internalType": "string",
          "name": "_status",
          "type": "string"
        },
        {
          "internalType": "uint64",
          "name": "_effort",
          "type": "uint64"
        },
        {
          "internalType": "bytes3",
          "name": "_color",
          "type": "bytes3"
        }
      ],
      "name": "updateAimStatusEffortColor",
      "outputs": [],
      "stateMutability": "nonpayable",
      "type": "function"
    },
    {
      "inputs": [
        {
          "internalType": "string",
          "name": "_title",
          "type": "string"
        }
      ],
      "name": "updateAimTitle",
      "outputs": [],
      "stateMutability": "nonpayable",
      "type": "function"
    },
    {
      "inputs": [
        {
          "internalType": "string",
          "name": "_title",
          "type": "string"
        },
        {
          "internalType": "bytes3",
          "name": "_color",
          "type": "bytes3"
        }
      ],
      "name": "updateAimTitleColor",
      "outputs": [],
      "stateMutability": "nonpayable",
      "type": "function"
    },
    {
      "inputs": [
        {
          "internalType": "string",
          "name": "_title",
          "type": "string"
        },
        {
          "internalType": "string",
          "name": "_description",
          "type": "string"
        }
      ],
      "name": "updateAimTitleDescription",
      "outputs": [],
      "stateMutability": "nonpayable",
      "type": "function"
    },
    {
      "inputs": [
        {
          "internalType": "string",
          "name": "_title",
          "type": "string"
        },
        {
          "internalType": "string",
          "name": "_description",
          "type": "string"
        },
        {
          "internalType": "bytes3",
          "name": "_color",
          "type": "bytes3"
        }
      ],
      "name": "updateAimTitleDescriptionColor",
      "outputs": [],
      "stateMutability": "nonpayable",
      "type": "function"
    },
    {
      "inputs": [
        {
          "internalType": "string",
          "name": "_title",
          "type": "string"
        },
        {
          "internalType": "string",
          "name": "_description",
          "type": "string"
        },
        {
          "internalType": "uint64",
          "name": "_effort",
          "type": "uint64"
        }
      ],
      "name": "updateAimTitleDescriptionEffort",
      "outputs": [],
      "stateMutability": "nonpayable",
      "type": "function"
    },
    {
      "inputs": [
        {
          "internalType": "string",
          "name": "_title",
          "type": "string"
        },
        {
          "internalType": "string",
          "name": "_description",
          "type": "string"
        },
        {
          "internalType": "uint64",
          "name": "_effort",
          "type": "uint64"
        },
        {
          "internalType": "bytes3",
          "name": "_color",
          "type": "bytes3"
        }
      ],
      "name": "updateAimTitleDescriptionEffortColor",
      "outputs": [],
      "stateMutability": "nonpayable",
      "type": "function"
    },
    {
      "inputs": [
        {
          "internalType": "string",
          "name": "_title",
          "type": "string"
        },
        {
          "internalType": "string",
          "name": "_description",
          "type": "string"
        },
        {
          "internalType": "string",
          "name": "_status",
          "type": "string"
        }
      ],
      "name": "updateAimTitleDescriptionStatus",
      "outputs": [],
      "stateMutability": "nonpayable",
      "type": "function"
    },
    {
      "inputs": [
        {
          "internalType": "string",
          "name": "_title",
          "type": "string"
        },
        {
          "internalType": "string",
          "name": "_description",
          "type": "string"
        },
        {
          "internalType": "string",
          "name": "_status",
          "type": "string"
        },
        {
          "internalType": "bytes3",
          "name": "_color",
          "type": "bytes3"
        }
      ],
      "name": "updateAimTitleDescriptionStatusColor",
      "outputs": [],
      "stateMutability": "nonpayable",
      "type": "function"
    },
    {
      "inputs": [
        {
          "internalType": "string",
          "name": "_title",
          "type": "string"
        },
        {
          "internalType": "string",
          "name": "_description",
          "type": "string"
        },
        {
          "internalType": "string",
          "name": "_status",
          "type": "string"
        },
        {
          "internalType": "uint64",
          "name": "_effort",
          "type": "uint64"
        }
      ],
      "name": "updateAimTitleDescriptionStatusEffort",
      "outputs": [],
      "stateMutability": "nonpayable",
      "type": "function"
    },
    {
      "inputs": [
        {
          "internalType": "string",
          "name": "_title",
          "type": "string"
        },
        {
          "internalType": "string",
          "name": "_description",
          "type": "string"
        },
        {
          "internalType": "string",
          "name": "_status",
          "type": "string"
        },
        {
          "internalType": "uint64",
          "name": "_effort",
          "type": "uint64"
        },
        {
          "internalType": "bytes3",
          "name": "_color",
          "type": "bytes3"
        }
      ],
      "name": "updateAimTitleDescriptionStatusEffortColor",
      "outputs": [],
      "stateMutability": "nonpayable",
      "type": "function"
    },
    {
      "inputs": [
        {
          "internalType": "string",
          "name": "_title",
          "type": "string"
        },
        {
          "internalType": "uint64",
          "name": "_effort",
          "type": "uint64"
        }
      ],
      "name": "updateAimTitleEffort",
      "outputs": [],
      "stateMutability": "nonpayable",
      "type": "function"
    },
    {
      "inputs": [
        {
          "internalType": "string",
          "name": "_title",
          "type": "string"
        },
        {
          "internalType": "uint64",
          "name": "_effort",
          "type": "uint64"
        },
        {
          "internalType": "bytes3",
          "name": "_color",
          "type": "bytes3"
        }
      ],
      "name": "updateAimTitleEffortColor",
      "outputs": [],
      "stateMutability": "nonpayable",
      "type": "function"
    },
    {
      "inputs": [
        {
          "internalType": "string",
          "name": "_title",
          "type": "string"
        },
        {
          "internalType": "string",
          "name": "_status",
          "type": "string"
        }
      ],
      "name": "updateAimTitleStatus",
      "outputs": [],
      "stateMutability": "nonpayable",
      "type": "function"
    },
    {
      "inputs": [
        {
          "internalType": "string",
          "name": "_title",
          "type": "string"
        },
        {
          "internalType": "string",
          "name": "_status",
          "type": "string"
        },
        {
          "internalType": "bytes3",
          "name": "_color",
          "type": "bytes3"
        }
      ],
      "name": "updateAimTitleStatusColor",
      "outputs": [],
      "stateMutability": "nonpayable",
      "type": "function"
    },
    {
      "inputs": [
        {
          "internalType": "string",
          "name": "_title",
          "type": "string"
        },
        {
          "internalType": "string",
          "name": "_status",
          "type": "string"
        },
        {
          "internalType": "uint64",
          "name": "_effort",
          "type": "uint64"
        }
      ],
      "name": "updateAimTitleStatusEffort",
      "outputs": [],
      "stateMutability": "nonpayable",
      "type": "function"
    },
    {
      "inputs": [
        {
          "internalType": "string",
          "name": "_title",
          "type": "string"
        },
        {
          "internalType": "string",
          "name": "_status",
          "type": "string"
        },
        {
          "internalType": "uint64",
          "name": "_effort",
          "type": "uint64"
        },
        {
          "internalType": "bytes3",
          "name": "_color",
          "type": "bytes3"
        }
      ],
      "name": "updateAimTitleStatusEffortColor",
      "outputs": [],
      "stateMutability": "nonpayable",
      "type": "function"
    },
    {
      "inputs": [
        {
          "internalType": "address",
          "name": "_from",
          "type": "address"
        },
        {
          "internalType": "bytes4",
          "name": "_d2d",
          "type": "bytes4"
        }
      ],
      "name": "updateFlowD2d",
      "outputs": [],
      "stateMutability": "nonpayable",
      "type": "function"
    },
    {
      "inputs": [
        {
          "internalType": "address",
          "name": "_from",
          "type": "address"
        },
        {
          "internalType": "string",
          "name": "_explanation",
          "type": "string"
        }
      ],
      "name": "updateFlowExplanation",
      "outputs": [],
      "stateMutability": "nonpayable",
      "type": "function"
    },
    {
      "inputs": [
        {
          "internalType": "address",
          "name": "_from",
          "type": "address"
        },
        {
          "internalType": "string",
          "name": "_explanation",
          "type": "string"
        },
        {
          "internalType": "bytes4",
          "name": "_d2d",
          "type": "bytes4"
        }
      ],
      "name": "updateFlowExplanationD2d",
      "outputs": [],
      "stateMutability": "nonpayable",
      "type": "function"
    },
    {
      "inputs": [
        {
          "internalType": "address",
          "name": "_from",
          "type": "address"
        },
        {
          "internalType": "string",
          "name": "_explanation",
          "type": "string"
        },
        {
          "internalType": "uint16",
          "name": "_weight",
          "type": "uint16"
        }
      ],
      "name": "updateFlowExplanationWeight",
      "outputs": [],
      "stateMutability": "nonpayable",
      "type": "function"
    },
    {
      "inputs": [
        {
          "internalType": "address",
          "name": "_from",
          "type": "address"
        },
        {
          "internalType": "string",
          "name": "_explanation",
          "type": "string"
        },
        {
          "internalType": "uint16",
          "name": "_weight",
          "type": "uint16"
        },
        {
          "internalType": "bytes4",
          "name": "_d2d",
          "type": "bytes4"
        }
      ],
      "name": "updateFlowExplanationWeightD2d",
      "outputs": [],
      "stateMutability": "nonpayable",
      "type": "function"
    },
    {
      "inputs": [
        {
          "internalType": "address",
          "name": "_from",
          "type": "address"
        },
        {
          "internalType": "uint16",
          "name": "_weight",
          "type": "uint16"
        }
      ],
      "name": "updateFlowWeight",
      "outputs": [],
      "stateMutability": "nonpayable",
      "type": "function"
    },
    {
      "inputs": [
        {
          "internalType": "address",
          "name": "_from",
          "type": "address"
        },
        {
          "internalType": "uint16",
          "name": "_weight",
          "type": "uint16"
        },
        {
          "internalType": "bytes4",
          "name": "_d2d",
          "type": "bytes4"
        }
      ],
      "name": "updateFlowWeightD2d",
      "outputs": [],
      "stateMutability": "nonpayable",
      "type": "function"
    }
  ],
  "bytecode": "0x608060405260405162004af238038062004af28339810160408190526200002691620003b8565b604080516020808201835260008083528351918201909352918252906200004d33620001da565b81516200006290600490602085019062000312565b5080516200007890600590602084019062000312565b5050506002816001600160801b031662000093919062000522565b34146200009f57600080fd5b620000b4826001600160801b0383166200022a565b620000bf82620001da565b60408051808201909152600a8082526961696d706172656e637960b01b6020909201918252620000f29160099162000312565b506040805180820190915260038082526207769760ec1b60209092019182526200011f91600b9162000312565b5060405180606001604052806021815260200162004ad16021913980516200015091600a9160209091019062000312565b50600c80546001600160581b0319166a9999990000000037001400178155604080518082019091528181526b185a5b5c185c995b98d95b9d60a21b6020909101908152620001a2916006919062000312565b50604080518082019091526005808252644d50524e4360d81b6020909201918252620001d19160079162000312565b50505062000592565b600080546001600160a01b038381166001600160a01b0319831681178455604051919092169283917f8be0079c531659141344cd1fd0a4f28419497f9722a3daafe3b4186f6b6457e09190a35050565b6001600160a01b038216620002855760405162461bcd60e51b815260206004820152601f60248201527f45524332303a206d696e7420746f20746865207a65726f206164647265737300604482015260640160405180910390fd5b80600360008282546200029991906200053a565b90915550506001600160a01b03821660009081526001602052604081208054839290620002c89084906200053a565b90915550506040518181526001600160a01b038316906000907fddf252ad1be2c89b69c2b068fc378daa952ba7f163c4a11628f55a4df523b3ef9060200160405180910390a35050565b828054620003209062000555565b90600052602060002090601f0160209004810192826200034457600085556200038f565b82601f106200035f57805160ff19168380011785556200038f565b828001600101855582156200038f579182015b828111156200038f57825182559160200191906001019062000372565b506200039d929150620003a1565b5090565b5b808211156200039d5760008155600101620003a2565b60008060408385031215620003cc57600080fd5b82516001600160a01b0381168114620003e457600080fd5b60208401519092506001600160801b03811681146200040257600080fd5b809150509250929050565b634e487b7160e01b600052601160045260246000fd5b600181815b80851115620004645781600019048211156200044857620004486200040d565b808516156200045657918102915b93841c939080029062000428565b509250929050565b6000826200047d575060016200051c565b816200048c575060006200051c565b8160018114620004a55760028114620004b057620004d0565b60019150506200051c565b60ff841115620004c457620004c46200040d565b50506001821b6200051c565b5060208310610133831016604e8410600b8410161715620004f5575081810a6200051c565b62000501838362000423565b80600019048211156200051857620005186200040d565b0290505b92915050565b60006200053360ff8416836200046c565b9392505050565b600082198211156200055057620005506200040d565b500190565b600181811c908216806200056a57607f821691505b602082108114156200058c57634e487b7160e01b600052602260045260246000fd5b50919050565b61452f80620005a26000396000f3fe6080604052600436106103ce5760003560e01c806373d4a13a116101fd578063a457c2d711610118578063c3f1a710116100ab578063df3629451161007a578063df36294514610b89578063f2fde38b14610ba9578063f70fee8314610bc9578063fb64ee7314610be9578063fc7f8cc914610c0957600080fd5b8063c3f1a71014610b07578063c672900d14610b29578063c9cb2dcc14610b49578063dd62ed3e14610b6957600080fd5b8063b2e571a4116100e7578063b2e571a414610a9f578063b513b85814610abf578063beb9a10e14610adf578063c3a07df614610af257600080fd5b8063a457c2d714610a1f578063a9059cbb14610a3f578063afb166a214610a5f578063b2d880ea14610a7f57600080fd5b806388ff76871161019057806395d89b411161015f57806395d89b41146109aa5780639681ba85146109bf57806396d0e98e146109df5780639fc05368146109ff57600080fd5b806388ff7687146109225780638d3347ce146109425780638d7d8d37146109625780638da5cb5b1461098257600080fd5b806380b2cf71116101cc57806380b2cf711461089457806381414674146108b4578063849dcc6d146108d4578063865ceb03146108f457600080fd5b806373d4a13a1461080e5780637408fc3f146108345780637725ef64146108545780637cf1d5811461087457600080fd5b80632c843151116102ed578063561fbae31161028057806365f16b181161024f57806365f16b18146107835780636ccf9f19146107a357806370a08231146107c3578063715018a6146107f957600080fd5b8063561fbae31461070e57806358db52a21461072e57806361a3c86e14610741578063648aab6c1461076157600080fd5b8063465e33f6116102bc578063465e33f61461067b578063493dc5351461069b57806350c44a4d146106bb57806353ec4a58146106ee57600080fd5b80632c84315114610607578063313ce56714610627578063375a4c0f1461063b578063395093511461065b57600080fd5b806318160ddd1161036557806323206f4a1161033457806323206f4a1461058757806323b872dd146105a757806325946eea146105c7578063265df83a146105e757600080fd5b806318160ddd146105085780631d15604d146105275780631f0001c6146105475780632107b5b11461056757600080fd5b80630b71d341116103a15780630b71d3411461048e578063146db133146104ae57806314eba0d4146104ce578063158ef93e146104ee57600080fd5b806301e88208146103d357806305eb22ea1461041a57806306fdde031461043c578063095ea7b31461045e575b600080fd5b3480156103df57600080fd5b506104036103ee3660046131d4565b600d6020526000908152604090205460ff1681565b60405160ff90911681526020015b60405180910390f35b34801561042657600080fd5b5061043a61043536600461323e565b610c29565b005b34801561044857600080fd5b50610451610c89565b60405161041191906132cc565b34801561046a57600080fd5b5061047e6104793660046132df565b610d1b565b6040519015158152602001610411565b34801561049a57600080fd5b5061043a6104a936600461323e565b610d35565b3480156104ba57600080fd5b5061043a6104c9366004613334565b610d87565b3480156104da57600080fd5b5061043a6104e93660046133c8565b610e1b565b3480156104fa57600080fd5b5060085461047e9060ff1681565b34801561051457600080fd5b506003545b604051908152602001610411565b34801561053357600080fd5b5061043a61054236600461341e565b610e93565b34801561055357600080fd5b5061043a6105623660046134a1565b610f1a565b34801561057357600080fd5b5061043a610582366004613566565b610fb0565b34801561059357600080fd5b5061043a6105a2366004613599565b611042565b3480156105b357600080fd5b5061047e6105c236600461360e565b6110c9565b3480156105d357600080fd5b5061043a6105e236600461364a565b6110ed565b3480156105f357600080fd5b5061043a6106023660046136b1565b611172565b34801561061357600080fd5b5061043a61062236600461371c565b6111d8565b34801561063357600080fd5b506012610403565b34801561064757600080fd5b5061043a610656366004613334565b611326565b34801561066757600080fd5b5061047e6106763660046132df565b611385565b34801561068757600080fd5b5061043a610696366004613770565b6113a7565b3480156106a757600080fd5b5061043a6106b63660046133c8565b611413565b3480156106c757600080fd5b506008546106db90610100900461ffff1681565b60405161ffff9091168152602001610411565b3480156106fa57600080fd5b5061043a61070936600461341e565b611465565b34801561071a57600080fd5b5061043a61072936600461323e565b6114c4565b61043a61073c3660046137d9565b611516565b34801561074d57600080fd5b5061043a61075c3660046137f4565b6117e3565b34801561076d57600080fd5b5061077661184c565b6040516104119190613811565b34801561078f57600080fd5b5061043a61079e36600461385e565b6118ad565b3480156107af57600080fd5b5061043a6107be36600461364a565b611950565b3480156107cf57600080fd5b506105196107de3660046131d4565b6001600160a01b031660009081526001602052604090205490565b34801561080557600080fd5b5061043a6119a2565b34801561081a57600080fd5b50610823611a08565b60405161041195949392919061391d565b34801561084057600080fd5b5061043a61084f366004613334565b611bd1565b34801561086057600080fd5b5061043a61086f366004613993565b611c23565b34801561088057600080fd5b5061043a61088f36600461341e565b611cac565b3480156108a057600080fd5b5061043a6108af3660046131d4565b611cfe565b3480156108c057600080fd5b5061043a6108cf3660046139ed565b611da5565b3480156108e057600080fd5b5061043a6108ef366004613599565b611e3b565b34801561090057600080fd5b5061091461090f3660046131d4565b611e9a565b604051610411929190613a8a565b34801561092e57600080fd5b5061043a61093d3660046136b1565b611f7f565b34801561094e57600080fd5b5061043a61095d366004613add565b611fd1565b34801561096e57600080fd5b5061043a61097d366004613b28565b612049565b34801561098e57600080fd5b506000546040516001600160a01b039091168152602001610411565b3480156109b657600080fd5b506104516120bf565b3480156109cb57600080fd5b5061043a6109da366004613b56565b6120ce565b3480156109eb57600080fd5b5061043a6109fa366004613add565b612137565b348015610a0b57600080fd5b5061043a610a1a36600461364a565b612189565b348015610a2b57600080fd5b5061047e610a3a3660046132df565b6121db565b348015610a4b57600080fd5b5061047e610a5a3660046132df565b612256565b348015610a6b57600080fd5b5061043a610a7a366004613b73565b612264565b348015610a8b57600080fd5b5061043a610a9a366004613c0c565b6122d9565b348015610aab57600080fd5b5061043a610aba366004613c51565b612376565b348015610acb57600080fd5b5061043a610ada366004613add565b612418565b61043a610aed366004613cb5565b61246a565b348015610afe57600080fd5b506104036125b7565b348015610b1357600080fd5b5033600090815260016020526040902054610519565b348015610b3557600080fd5b5061043a610b443660046133c8565b6125f8565b348015610b5557600080fd5b5061043a610b64366004613d72565b61264a565b348015610b7557600080fd5b50610519610b84366004613d9e565b6126c2565b348015610b9557600080fd5b5061043a610ba4366004613dc8565b6126ed565b348015610bb557600080fd5b5061043a610bc43660046131d4565b61285e565b348015610bd557600080fd5b5061043a610be4366004613de4565b612929565b348015610bf557600080fd5b5061043a610c043660046136b1565b6129d4565b348015610c1557600080fd5b5061043a610c24366004613599565b612a33565b6000546001600160a01b0316331480610c535750336000908152600d602052604090205460011615155b610c785760405162461bcd60e51b8152600401610c6f90613e5a565b60405180910390fd5b610c84600a838361311f565b505050565b606060068054610c9890613ea3565b80601f0160208091040260200160405190810160405280929190818152602001828054610cc490613ea3565b8015610d115780601f10610ce657610100808354040283529160200191610d11565b820191906000526020600020905b815481529060010190602001808311610cf457829003601f168201915b5050505050905090565b600033610d29818585612a85565b60019150505b92915050565b6000546001600160a01b0316331480610d5f5750336000908152600d602052604090205460011615155b610d7b5760405162461bcd60e51b8152600401610c6f90613e5a565b610c846009838361311f565b6000546001600160a01b0316331480610db15750336000908152600d602052604090205460011615155b610dcd5760405162461bcd60e51b8152600401610c6f90613e5a565b610dd96009878761311f565b50610de6600b858561311f565b50600c805460e89290921c600160401b026001600160581b03199092166001600160401b039093169290921717905550505050565b6000546001600160a01b0316331480610e455750336000908152600d602052604090205460011615155b610e615760405162461bcd60e51b8152600401610c6f90613e5a565b610e6d600b848461311f565b50600c805467ffffffffffffffff19166001600160401b03929092169190911790555050565b6000546001600160a01b0316331480610ebd5750336000908152600d602052604090205460011615155b610ed95760405162461bcd60e51b8152600401610c6f90613e5a565b610ee56009868661311f565b50610ef2600a848461311f565b50600c805460e89290921c600160401b0262ffffff60401b1990921691909117905550505050565b6000546001600160a01b0316331480610f445750336000908152600d602052604090205460011615155b610f605760405162461bcd60e51b8152600401610c6f90613e5a565b610f6c6009888861311f565b50610f79600a868661311f565b50610f86600b848461311f565b50600c805460e89290921c600160401b0262ffffff60401b19909216919091179055505050505050565b6000546001600160a01b0316331480610fda5750336000908152600d602052604090205460011615155b610ff65760405162461bcd60e51b8152600401610c6f90613e5a565b6001600160a01b03919091166000908152600f60205260409020600201805469ffffffffffffffff000019166201000060c09390931c67ffffffff000000001692909202919091179055565b6000546001600160a01b031633148061106c5750336000908152600d602052604090205460011615155b6110885760405162461bcd60e51b8152600401610c6f90613e5a565b6110946009868661311f565b506110a1600b848461311f565b50600c805467ffffffffffffffff19166001600160401b039290921691909117905550505050565b6000336110d7858285612ba9565b6110e2858585612c23565b506001949350505050565b6000546001600160a01b03163314806111175750336000908152600d602052604090205460011615155b6111335760405162461bcd60e51b8152600401610c6f90613e5a565b61113f6009858561311f565b50600c805460e89290921c600160401b026001600160581b03199092166001600160401b03909316929092171790555050565b6000546001600160a01b031633148061119c5750336000908152600d602052604090205460011615155b6111b85760405162461bcd60e51b8152600401610c6f90613e5a565b6111c4600a858561311f565b506111d1600b838361311f565b5050505050565b6000546001600160a01b03163314806112025750336000908152600d602052604090205460021615155b61121e5760405162461bcd60e51b8152600401610c6f90613ede565b6001600160a01b0382166000908152600f60205260409020805460ff161561127e5760405162461bcd60e51b8152602060048201526013602482015272666c6f7720616c72656164792065786973747360681b6044820152606401610c6f565b805460ff1916600190811782558290820161129982826140bd565b5050600e80546001810182556000919091527fbb7b4a454dc3493923482f07822329ed19e8244eff582cc204f8554c3620c3fd0180546001600160a01b0319166001600160a01b038516908117909155604080519182523060208301527f5414853ef9b291ca06b0719a4bd10d3c11df4edd883133f115a13d9642825553910160405180910390a1505050565b6000546001600160a01b03163314806113505750336000908152600d602052604090205460011615155b61136c5760405162461bcd60e51b8152600401610c6f90613e5a565b6113786009878761311f565b50610de6600a858561311f565b600033610d2981858561139883836126c2565b6113a291906141ef565b612a85565b6000546001600160a01b03163314806113d15750336000908152600d602052604090205460011615155b6113ed5760405162461bcd60e51b8152600401610c6f90613e5a565b6001600160a01b0383166000908152600f602052604090206001016111d181848461311f565b6000546001600160a01b031633148061143d5750336000908152600d602052604090205460011615155b6114595760405162461bcd60e51b8152600401610c6f90613e5a565b610e6d600a848461311f565b6000546001600160a01b031633148061148f5750336000908152600d602052604090205460011615155b6114ab5760405162461bcd60e51b8152600401610c6f90613e5a565b6114b7600a868661311f565b50610ef2600b848461311f565b6000546001600160a01b03163314806114ee5750336000908152600d602052604090205460011615155b61150a5760405162461bcd60e51b8152600401610c6f90613e5a565b610c84600b838361311f565b6115d260405180604001604052806006815260200165627579696e6760d01b815250826001600160801b03166007805461154f90613ea3565b80601f016020809104026020016040519081016040528092919081815260200182805461157b90613ea3565b80156115c85780601f1061159d576101008083540402835291602001916115c8565b820191906000526020600020905b8154815290600101906020018083116115ab57829003601f168201915b5050505050612df1565b6000816001600160801b03166115e760035490565b6115f191906141ef565b90506001600160801b0381106116235760405162461bcd60e51b81526020600482015260006024820152604401610c6f565b6116516040518060400160405280600c81526020016b746172676574537570706c7960a01b81525082612e38565b6000600261165e60035490565b61166891906142eb565b905060006116776002846142eb565b9050600061168583836142fa565b90506116b56040518060400160405280600c81526020016b746172676574537570706c7960a01b81525082612e38565b348111156117055760405162461bcd60e51b815260206004820152601760248201527f696e73756666696369656e742066756e64732073656e740000000000000000006044820152606401610c6f565b803414806117345750336108fc61171c83346142fa565b6040518115909202916000818181858888f193505050505b156117835761176b604051806040016040528060078152602001666d696e74696e6760c81b815250866001600160801b0316612e38565b61177e33866001600160801b0316612e81565b6111d1565b60405162461bcd60e51b815260206004820152602f60248201527f66756e64732073656e74206578636565647320707269636520616e642073656e60448201526e646572206e6f742070617961626c6560881b6064820152608401610c6f565b6000546001600160a01b031633148061180d5750336000908152600d602052604090205460011615155b6118295760405162461bcd60e51b8152600401610c6f90613e5a565b600c805460e89290921c600160401b0262ffffff60401b19909216919091179055565b6060600e805480602002602001604051908101604052809291908181526020018280548015610d1157602002820191906000526020600020905b81546001600160a01b03168152600190910190602001808311611886575050505050905090565b6000546001600160a01b03163314806118d75750336000908152600d602052604090205460011615155b6118f35760405162461bcd60e51b8152600401610c6f90613e5a565b6118ff6009898961311f565b5061190c600a878761311f565b50611919600b858561311f565b50600c805460e89290921c600160401b026001600160581b03199092166001600160401b0390931692909217179055505050505050565b6000546001600160a01b031633148061197a5750336000908152600d602052604090205460011615155b6119965760405162461bcd60e51b8152600401610c6f90613e5a565b61113f600a858561311f565b6000546001600160a01b031633146119fc5760405162461bcd60e51b815260206004820181905260248201527f4f776e61626c653a2063616c6c6572206973206e6f7420746865206f776e65726044820152606401610c6f565b611a066000612f60565b565b600980548190611a1790613ea3565b80601f0160208091040260200160405190810160405280929190818152602001828054611a4390613ea3565b8015611a905780601f10611a6557610100808354040283529160200191611a90565b820191906000526020600020905b815481529060010190602001808311611a7357829003601f168201915b505050505090806001018054611aa590613ea3565b80601f0160208091040260200160405190810160405280929190818152602001828054611ad190613ea3565b8015611b1e5780601f10611af357610100808354040283529160200191611b1e565b820191906000526020600020905b815481529060010190602001808311611b0157829003601f168201915b505050505090806002018054611b3390613ea3565b80601f0160208091040260200160405190810160405280929190818152602001828054611b5f90613ea3565b8015611bac5780601f10611b8157610100808354040283529160200191611bac565b820191906000526020600020905b815481529060010190602001808311611b8f57829003601f168201915b505050600390930154919250506001600160401b03811690600160401b900460e81b85565b6000546001600160a01b0316331480611bfb5750336000908152600d602052604090205460011615155b611c175760405162461bcd60e51b8152600401610c6f90613e5a565b610dd9600a878761311f565b6000546001600160a01b0316331480611c4d5750336000908152600d602052604090205460011615155b611c695760405162461bcd60e51b8152600401610c6f90613e5a565b6001600160a01b0384166000908152600f60205260409020600101611c8f81858561311f565b50600101805461ffff191661ffff92909216919091179055505050565b6000546001600160a01b0316331480611cd65750336000908152600d602052604090205460011615155b611cf25760405162461bcd60e51b8152600401610c6f90613e5a565b6114b76009868661311f565b6000546001600160a01b0316331480611d285750336000908152600d602052604090205460021615155b611d445760405162461bcd60e51b8152600401610c6f90613ede565b6001600160a01b0381166000818152600f6020908152604091829020805460ff1916815582519384523091840191909152917faa300d84cb05e18e5308c6899532157490dcf91868f9a4f36f00e2f06dfbeb23910160405180910390a15050565b6000546001600160a01b0316331480611dcf5750336000908152600d602052604090205460011615155b611deb5760405162461bcd60e51b8152600401610c6f90613e5a565b611df76009888861311f565b50611e04600a868661311f565b50611e11600b848461311f565b50600c805467ffffffffffffffff19166001600160401b0392909216919091179055505050505050565b6000546001600160a01b0316331480611e655750336000908152600d602052604090205460011615155b611e815760405162461bcd60e51b8152600401610c6f90613e5a565b611e8d6009868661311f565b506110a1600a848461311f565b600f6020526000908152604090819020805482516060810190935260018201805460ff909216939182908290611ecf90613ea3565b80601f0160208091040260200160405190810160405280929190818152602001828054611efb90613ea3565b8015611f485780601f10611f1d57610100808354040283529160200191611f48565b820191906000526020600020905b815481529060010190602001808311611f2b57829003601f168201915b50505091835250506001919091015461ffff8116602083015262010000900460c01b6001600160c01b031916604090910152905082565b6000546001600160a01b0316331480611fa95750336000908152600d602052604090205460011615155b611fc55760405162461bcd60e51b8152600401610c6f90613e5a565b6111c46009858561311f565b6000546001600160a01b0316331480611ffb5750336000908152600d602052604090205460011615155b6120175760405162461bcd60e51b8152600401610c6f90613e5a565b6120236009848461311f565b50600c805460e89290921c600160401b0262ffffff60401b199092169190911790555050565b6000546001600160a01b03163314806120735750336000908152600d602052604090205460011615155b61208f5760405162461bcd60e51b8152600401610c6f90613e5a565b600c805460e89290921c600160401b026001600160581b03199092166001600160401b0390931692909217179055565b606060078054610c9890613ea3565b6000546001600160a01b03163314806120f85750336000908152600d602052604090205460011615155b6121145760405162461bcd60e51b8152600401610c6f90613e5a565b600c805467ffffffffffffffff19166001600160401b0392909216919091179055565b6000546001600160a01b03163314806121615750336000908152600d602052604090205460011615155b61217d5760405162461bcd60e51b8152600401610c6f90613e5a565b612023600a848461311f565b6000546001600160a01b03163314806121b35750336000908152600d602052604090205460011615155b6121cf5760405162461bcd60e51b8152600401610c6f90613e5a565b61113f600b858561311f565b600033816121e982866126c2565b9050838110156122495760405162461bcd60e51b815260206004820152602560248201527f45524332303a2064656372656173656420616c6c6f77616e63652062656c6f77604482015264207a65726f60d81b6064820152608401610c6f565b6110e28286868403612a85565b600033610d29818585612c23565b6000546001600160a01b031633148061228e5750336000908152600d602052604090205460011615155b6122aa5760405162461bcd60e51b8152600401610c6f90613e5a565b6122b66009878761311f565b506122c3600a858561311f565b506122d0600b838361311f565b50505050505050565b6000546001600160a01b03163314806123035750336000908152600d602052604090205460011615155b61231f5760405162461bcd60e51b8152600401610c6f90613e5a565b6001600160a01b039092166000908152600f60205260409020600201805467ffffffff0000000060c09490941c93909316620100000269ffffffffffffffffffff1990931661ffff90921691909117919091179055565b6000546001600160a01b03163314806123a05750336000908152600d602052604090205460011615155b6123bc5760405162461bcd60e51b8152600401610c6f90613e5a565b6001600160a01b0384166000908152600f602052604090206001016123e281858561311f565b50600101805469ffffffffffffffff000019166201000060c09390931c67ffffffff000000001692909202919091179055505050565b6000546001600160a01b03163314806124425750336000908152600d602052604090205460011615155b61245e5760405162461bcd60e51b8152600401610c6f90613e5a565b612023600b848461311f565b60085460ff16156124c75760405162461bcd60e51b815260206004820152602160248201527f61696d732063616e206f6e6c7920626520696e697469616c697a6564206f6e636044820152606560f81b6064820152608401610c6f565b346124db6001600160801b03831680614311565b146125645760405162461bcd60e51b815260206004820152604d60248201527f696e697469616c20696e766573746d656e742072657175697265732066756e6460448201527f7320746f20657175616c2074686520737175617265206f6620696e697469616c60648201526c081d1bdad95b88185b5bdd5b9d609a1b608482015260a401610c6f565b6008805460ff1916600117905561257a87612f60565b856009612587828261434a565b5061259690506006868661311f565b506125a36007848461311f565b506122d087826001600160801b0316612e81565b6000336125cc6000546001600160a01b031690565b6001600160a01b031614156125e1575060ff90565b50336000908152600d602052604090205460ff1690565b6000546001600160a01b03163314806126225750336000908152600d602052604090205460011615155b61263e5760405162461bcd60e51b8152600401610c6f90613e5a565b610e6d6009848461311f565b6000546001600160a01b03163314806126745750336000908152600d602052604090205460011615155b6126905760405162461bcd60e51b8152600401610c6f90613e5a565b6001600160a01b03919091166000908152600f60205260409020600201805461ffff191661ffff909216919091179055565b6001600160a01b03918216600090815260026020908152604080832093909416825291909152205490565b33600090815260016020526040902054826001600160801b031611156127495760405162461bcd60e51b81526020600482015260116024820152706e6f7420656e6f75676820746f6b656e7360781b6044820152606401610c6f565b6000826001600160801b031661275e60035490565b61276891906142fa565b90506000600261277760035490565b61278191906142eb565b905060006127906002846142eb565b9050600061279e82846142fa565b9050848110156127e05760405162461bcd60e51b815260206004820152600d60248201526c1c1c9a58d948191c9bdc1c1959609a1b6044820152606401610c6f565b604051339082156108fc029083906000818181858888f19350505050156128195761281433876001600160801b0316612fb0565b612856565b60405162461bcd60e51b815260206004820152601260248201527173656e646572206e6f742070617961626c6560701b6044820152606401610c6f565b505050505050565b6000546001600160a01b031633146128b85760405162461bcd60e51b815260206004820181905260248201527f4f776e61626c653a2063616c6c6572206973206e6f7420746865206f776e65726044820152606401610c6f565b6001600160a01b03811661291d5760405162461bcd60e51b815260206004820152602660248201527f4f776e61626c653a206e6577206f776e657220697320746865207a65726f206160448201526564647265737360d01b6064820152608401610c6f565b61292681612f60565b50565b6000546001600160a01b03163314806129535750336000908152600d602052604090205460011615155b61296f5760405162461bcd60e51b8152600401610c6f90613e5a565b6001600160a01b0385166000908152600f6020526040902060010161299581868661311f565b50600101805467ffffffff0000000060c09390931c92909216620100000269ffffffffffffffffffff1990921661ffff90931692909217179055505050565b6000546001600160a01b03163314806129fe5750336000908152600d602052604090205460011615155b612a1a5760405162461bcd60e51b8152600401610c6f90613e5a565b612a266009858561311f565b506111d1600a838361311f565b6000546001600160a01b0316331480612a5d5750336000908152600d602052604090205460011615155b612a795760405162461bcd60e51b8152600401610c6f90613e5a565b611094600a868661311f565b6001600160a01b038316612ae75760405162461bcd60e51b8152602060048201526024808201527f45524332303a20617070726f76652066726f6d20746865207a65726f206164646044820152637265737360e01b6064820152608401610c6f565b6001600160a01b038216612b485760405162461bcd60e51b815260206004820152602260248201527f45524332303a20617070726f766520746f20746865207a65726f206164647265604482015261737360f01b6064820152608401610c6f565b6001600160a01b0383811660008181526002602090815260408083209487168084529482529182902085905590518481527f8c5be1e5ebec7d5bd14f71427d1e84f3dd0314c0f7b2291e5b200ac8c7c3b925910160405180910390a3505050565b6000612bb584846126c2565b90506000198114612c1d5781811015612c105760405162461bcd60e51b815260206004820152601d60248201527f45524332303a20696e73756666696369656e7420616c6c6f77616e63650000006044820152606401610c6f565b612c1d8484848403612a85565b50505050565b6001600160a01b038316612c875760405162461bcd60e51b815260206004820152602560248201527f45524332303a207472616e736665722066726f6d20746865207a65726f206164604482015264647265737360d81b6064820152608401610c6f565b6001600160a01b038216612ce95760405162461bcd60e51b815260206004820152602360248201527f45524332303a207472616e7366657220746f20746865207a65726f206164647260448201526265737360e81b6064820152608401610c6f565b6001600160a01b03831660009081526001602052604090205481811015612d615760405162461bcd60e51b815260206004820152602660248201527f45524332303a207472616e7366657220616d6f756e7420657863656564732062604482015265616c616e636560d01b6064820152608401610c6f565b6001600160a01b03808516600090815260016020526040808220858503905591851681529081208054849290612d989084906141ef565b92505081905550826001600160a01b0316846001600160a01b03167fddf252ad1be2c89b69c2b068fc378daa952ba7f163c4a11628f55a4df523b3ef84604051612de491815260200190565b60405180910390a3612c1d565b610c84838383604051602401612e09939291906144a2565b60408051601f198184030181529190526020810180516001600160e01b031663a3f5c73960e01b1790526130fe565b612e7d8282604051602401612e4e9291906144d7565b60408051601f198184030181529190526020810180516001600160e01b03166309710a9d60e41b1790526130fe565b5050565b6001600160a01b038216612ed75760405162461bcd60e51b815260206004820152601f60248201527f45524332303a206d696e7420746f20746865207a65726f2061646472657373006044820152606401610c6f565b8060036000828254612ee991906141ef565b90915550506001600160a01b03821660009081526001602052604081208054839290612f169084906141ef565b90915550506040518181526001600160a01b038316906000907fddf252ad1be2c89b69c2b068fc378daa952ba7f163c4a11628f55a4df523b3ef9060200160405180910390a35050565b600080546001600160a01b038381166001600160a01b0319831681178455604051919092169283917f8be0079c531659141344cd1fd0a4f28419497f9722a3daafe3b4186f6b6457e09190a35050565b6001600160a01b0382166130105760405162461bcd60e51b815260206004820152602160248201527f45524332303a206275726e2066726f6d20746865207a65726f206164647265736044820152607360f81b6064820152608401610c6f565b6001600160a01b038216600090815260016020526040902054818110156130845760405162461bcd60e51b815260206004820152602260248201527f45524332303a206275726e20616d6f756e7420657863656564732062616c616e604482015261636560f01b6064820152608401610c6f565b6001600160a01b03831660009081526001602052604081208383039055600380548492906130b39084906142fa565b90915550506040518281526000906001600160a01b038516907fddf252ad1be2c89b69c2b068fc378daa952ba7f163c4a11628f55a4df523b3ef9060200160405180910390a3505050565b80516a636f6e736f6c652e6c6f67602083016000808483855afa5050505050565b82805461312b90613ea3565b90600052602060002090601f01602090048101928261314d5760008555613193565b82601f106131665782800160ff19823516178555613193565b82800160010185558215613193579182015b82811115613193578235825591602001919060010190613178565b5061319f9291506131a3565b5090565b5b8082111561319f57600081556001016131a4565b80356001600160a01b03811681146131cf57600080fd5b919050565b6000602082840312156131e657600080fd5b6131ef826131b8565b9392505050565b60008083601f84011261320857600080fd5b5081356001600160401b0381111561321f57600080fd5b60208301915083602082850101111561323757600080fd5b9250929050565b6000806020838503121561325157600080fd5b82356001600160401b0381111561326757600080fd5b613273858286016131f6565b90969095509350505050565b6000815180845260005b818110156132a557602081850181015186830182015201613289565b818111156132b7576000602083870101525b50601f01601f19169290920160200192915050565b6020815260006131ef602083018461327f565b600080604083850312156132f257600080fd5b6132fb836131b8565b946020939093013593505050565b6001600160401b038116811461292657600080fd5b6001600160e81b03198116811461292657600080fd5b6000806000806000806080878903121561334d57600080fd5b86356001600160401b038082111561336457600080fd5b6133708a838b016131f6565b9098509650602089013591508082111561338957600080fd5b5061339689828a016131f6565b90955093505060408701356133aa81613309565b915060608701356133ba8161331e565b809150509295509295509295565b6000806000604084860312156133dd57600080fd5b83356001600160401b038111156133f357600080fd5b6133ff868287016131f6565b909450925050602084013561341381613309565b809150509250925092565b60008060008060006060868803121561343657600080fd5b85356001600160401b038082111561344d57600080fd5b61345989838a016131f6565b9097509550602088013591508082111561347257600080fd5b5061347f888289016131f6565b90945092505060408601356134938161331e565b809150509295509295909350565b60008060008060008060006080888a0312156134bc57600080fd5b87356001600160401b03808211156134d357600080fd5b6134df8b838c016131f6565b909950975060208a01359150808211156134f857600080fd5b6135048b838c016131f6565b909750955060408a013591508082111561351d57600080fd5b5061352a8a828b016131f6565b909450925050606088013561353e8161331e565b8091505092959891949750929550565b80356001600160e01b0319811681146131cf57600080fd5b6000806040838503121561357957600080fd5b613582836131b8565b91506135906020840161354e565b90509250929050565b6000806000806000606086880312156135b157600080fd5b85356001600160401b03808211156135c857600080fd5b6135d489838a016131f6565b909750955060208801359150808211156135ed57600080fd5b506135fa888289016131f6565b909450925050604086013561349381613309565b60008060006060848603121561362357600080fd5b61362c846131b8565b925061363a602085016131b8565b9150604084013590509250925092565b6000806000806060858703121561366057600080fd5b84356001600160401b0381111561367657600080fd5b613682878288016131f6565b909550935050602085013561369681613309565b915060408501356136a68161331e565b939692955090935050565b600080600080604085870312156136c757600080fd5b84356001600160401b03808211156136de57600080fd5b6136ea888389016131f6565b9096509450602087013591508082111561370357600080fd5b50613710878288016131f6565b95989497509550505050565b6000806040838503121561372f57600080fd5b613738836131b8565b915060208301356001600160401b0381111561375357600080fd5b83016060818603121561376557600080fd5b809150509250929050565b60008060006040848603121561378557600080fd5b61378e846131b8565b925060208401356001600160401b038111156137a957600080fd5b6137b5868287016131f6565b9497909650939450505050565b80356001600160801b03811681146131cf57600080fd5b6000602082840312156137eb57600080fd5b6131ef826137c2565b60006020828403121561380657600080fd5b81356131ef8161331e565b6020808252825182820181905260009190848201906040850190845b818110156138525783516001600160a01b03168352928401929184019160010161382d565b50909695505050505050565b60008060008060008060008060a0898b03121561387a57600080fd5b88356001600160401b038082111561389157600080fd5b61389d8c838d016131f6565b909a50985060208b01359150808211156138b657600080fd5b6138c28c838d016131f6565b909850965060408b01359150808211156138db57600080fd5b506138e88b828c016131f6565b90955093505060608901356138fc81613309565b9150608089013561390c8161331e565b809150509295985092959890939650565b60a08152600061393060a083018861327f565b8281036020840152613942818861327f565b90508281036040840152613956818761327f565b6001600160401b0395909516606084015250506001600160e81b0319919091166080909101529392505050565b61ffff8116811461292657600080fd5b600080600080606085870312156139a957600080fd5b6139b2856131b8565b935060208501356001600160401b038111156139cd57600080fd5b6139d9878288016131f6565b90945092505060408501356136a681613983565b60008060008060008060006080888a031215613a0857600080fd5b87356001600160401b0380821115613a1f57600080fd5b613a2b8b838c016131f6565b909950975060208a0135915080821115613a4457600080fd5b613a508b838c016131f6565b909750955060408a0135915080821115613a6957600080fd5b50613a768a828b016131f6565b909450925050606088013561353e81613309565b8215158152604060208201526000825160606040840152613aae60a084018261327f565b602085015161ffff1660608501526040909401516001600160c01b031916608090930192909252509092915050565b600080600060408486031215613af257600080fd5b83356001600160401b03811115613b0857600080fd5b613b14868287016131f6565b90945092505060208401356134138161331e565b60008060408385031215613b3b57600080fd5b8235613b4681613309565b915060208301356137658161331e565b600060208284031215613b6857600080fd5b81356131ef81613309565b60008060008060008060608789031215613b8c57600080fd5b86356001600160401b0380821115613ba357600080fd5b613baf8a838b016131f6565b90985096506020890135915080821115613bc857600080fd5b613bd48a838b016131f6565b90965094506040890135915080821115613bed57600080fd5b50613bfa89828a016131f6565b979a9699509497509295939492505050565b600080600060608486031215613c2157600080fd5b613c2a846131b8565b92506020840135613c3a81613983565b9150613c486040850161354e565b90509250925092565b60008060008060608587031215613c6757600080fd5b613c70856131b8565b935060208501356001600160401b03811115613c8b57600080fd5b613c97878288016131f6565b9094509250613caa90506040860161354e565b905092959194509250565b600080600080600080600060a0888a031215613cd057600080fd5b613cd9886131b8565b965060208801356001600160401b0380821115613cf557600080fd5b9089019060a0828c031215613d0957600080fd5b90965060408901359080821115613d1f57600080fd5b613d2b8b838c016131f6565b909750955060608a0135915080821115613d4457600080fd5b50613d518a828b016131f6565b9094509250613d649050608089016137c2565b905092959891949750929550565b60008060408385031215613d8557600080fd5b613d8e836131b8565b9150602083013561376581613983565b60008060408385031215613db157600080fd5b613dba836131b8565b9150613590602084016131b8565b60008060408385031215613ddb57600080fd5b6132fb836137c2565b600080600080600060808688031215613dfc57600080fd5b613e05866131b8565b945060208601356001600160401b03811115613e2057600080fd5b613e2c888289016131f6565b9095509350506040860135613e4081613983565b9150613e4e6060870161354e565b90509295509295909350565b60208082526029908201527f73656e64657220686173206e6f207065726d697373696f6e20746f206564697460408201526820746869732061696d60b81b606082015260800190565b600181811c90821680613eb757607f821691505b60208210811415613ed857634e487b7160e01b600052602260045260246000fd5b50919050565b60208082526028908201527f73656e64657220686173206e6f207065726d697373696f6e20746f206368616e604082015267676520666c6f777360c01b606082015260800190565b6000808335601e19843603018112613f3d57600080fd5b8301803591506001600160401b03821115613f5757600080fd5b60200191503681900382131561323757600080fd5b634e487b7160e01b600052604160045260246000fd5b601f821115610c8457600081815260208120601f850160051c81016020861015613fa95750805b601f850160051c820191505b8181101561285657828155600101613fb5565b600019600383901b1c191660019190911b1790565b6001600160401b03831115613ff457613ff4613f6c565b614008836140028354613ea3565b83613f82565b6000601f84116001811461403657600085156140245750838201355b61402e8682613fc8565b8455506111d1565b600083815260209020601f19861690835b828110156140675786850135825560209485019460019092019101614047565b50868210156140845760001960f88860031b161c19848701351681555b505060018560011b0183555050505050565b60008135610d2f81613983565b600081356001600160c01b031981168114610d2f57600080fd5b6140c78283613f26565b6001600160401b038111156140de576140de613f6c565b6140f2816140ec8554613ea3565b85613f82565b6000601f821160018114614120576000831561410e5750838201355b6141188482613fc8565b86555061417a565b600085815260209020601f19841690835b828110156141515786850135825560209485019460019092019101614131565b508482101561416e5760001960f88660031b161c19848701351681555b505060018360011b0185555b50505050600181016141a461419160208501614096565b825461ffff191661ffff91909116178255565b610c846141b3604085016140a3565b825469ffffffffffffffff0000191660b09190911c69ffffffffffffffff000016178255565b634e487b7160e01b600052601160045260246000fd5b60008219821115614202576142026141d9565b500190565b600181815b80851115614242578160001904821115614228576142286141d9565b8085161561423557918102915b93841c939080029061420c565b509250929050565b60008261425957506001610d2f565b8161426657506000610d2f565b816001811461427c5760028114614286576142a2565b6001915050610d2f565b60ff841115614297576142976141d9565b50506001821b610d2f565b5060208310610133831016604e8410600b84101617156142c5575081810a610d2f565b6142cf8383614207565b80600019048211156142e3576142e36141d9565b029392505050565b60006131ef60ff84168361424a565b60008282101561430c5761430c6141d9565b500390565b600081600019048311821515161561432b5761432b6141d9565b500290565b60008135610d2f81613309565b60008135610d2f8161331e565b6143548283613f26565b6001600160401b0381111561436b5761436b613f6c565b614379816140ec8554613ea3565b6000601f8211600181146143a757600083156143955750838201355b61439f8482613fc8565b865550614401565b600085815260209020601f19841690835b828110156143d857868501358255602094850194600190920191016143b8565b50848210156143f55760001960f88660031b161c19848701351681555b505060018360011b0185555b505050506144126020830183613f26565b614420818360018601613fdd565b505061442f6040830183613f26565b61443d818360028601613fdd565b50506003810161447061445260608501614330565b825467ffffffffffffffff19166001600160401b0391909116178255565b610c8461447f6080850161433d565b825462ffffff60401b191660a89190911c6affffff000000000000000016178255565b6060815260006144b5606083018661327f565b84602084015282810360408401526144cd818561327f565b9695505050505050565b6040815260006144ea604083018561327f565b9050826020830152939250505056fea2646970667358221220f83ea0b598d55517f8bffcb5d41d2a128eb5c80cfdf38ff4e0b5ade9e997055364736f6c63430008090033616e20656666696369656e7420736f63696f65636f6e6f6d69632073797374656d",
  "linkReferences": {},
  "deployedLinkReferences": {}
}